{
  "abi": [
    {
      "type": "constructor",
      "inputs": [
        {
          "name": "validationRegistry",
          "type": "address",
          "internalType": "address"
        },
        {
          "name": "_owner",
          "type": "address",
          "internalType": "address"
        }
      ],
      "stateMutability": "nonpayable"
    },
    {
      "type": "function",
      "name": "addValidator",
      "inputs": [
        {
          "name": "validator",
          "type": "address",
          "internalType": "address"
        }
      ],
      "outputs": [],
      "stateMutability": "nonpayable"
    },
    {
      "type": "function",
      "name": "getAgentScore",
      "inputs": [
        {
          "name": "agent",
          "type": "address",
          "internalType": "address"
        }
      ],
      "outputs": [
        {
          "name": "",
          "type": "uint8",
          "internalType": "uint8"
        }
      ],
      "stateMutability": "view"
    },
    {
      "type": "function",
      "name": "getVerifiedPayments",
      "inputs": [
        {
          "name": "agent",
          "type": "address",
          "internalType": "address"
        }
      ],
      "outputs": [
        {
          "name": "",
          "type": "tuple[]",
          "internalType": "struct PaymentHistory.Payment[]",
          "components": [
            {
              "name": "requestHash",
              "type": "bytes32",
              "internalType": "bytes32"
            },
            {
              "name": "covenantId",
              "type": "bytes32",
              "internalType": "bytes32"
            },
            {
              "name": "status",
              "type": "uint8",
              "internalType": "enum PaymentHistory.Status"
            }
          ]
        }
      ],
      "stateMutability": "view"
    },
    {
      "type": "function",
      "name": "i_kudo",
      "inputs": [],
      "outputs": [
        {
          "name": "",
          "type": "address",
          "internalType": "contract IKudo"
        }
      ],
      "stateMutability": "view"
    },
    {
      "type": "function",
      "name": "isValidator",
      "inputs": [
        {
          "name": "",
          "type": "address",
          "internalType": "address"
        }
      ],
      "outputs": [
        {
          "name": "",
          "type": "bool",
          "internalType": "bool"
        }
      ],
      "stateMutability": "view"
    },
    {
      "type": "function",
      "name": "markLatePayments",
      "inputs": [
        {
          "name": "agent",
          "type": "address",
          "internalType": "address"
        },
        {
          "name": "covenantIds",
          "type": "bytes32[]",
          "internalType": "bytes32[]"
        }
      ],
      "outputs": [],
      "stateMutability": "nonpayable"
    },
    {
      "type": "function",
      "name": "owner",
      "inputs": [],
      "outputs": [
        {
          "name": "",
          "type": "address",
          "internalType": "address"
        }
      ],
      "stateMutability": "view"
    },
    {
      "type": "function",
      "name": "removeValidator",
      "inputs": [
        {
          "name": "validator",
          "type": "address",
          "internalType": "address"
        }
      ],
      "outputs": [],
      "stateMutability": "nonpayable"
    },
    {
      "type": "function",
      "name": "setKudo",
      "inputs": [
        {
          "name": "_kudo",
          "type": "address",
          "internalType": "address"
        }
      ],
      "outputs": [],
      "stateMutability": "nonpayable"
    },
    {
      "type": "function",
      "name": "transferOwnership",
      "inputs": [
        {
          "name": "newOwner",
          "type": "address",
          "internalType": "address"
        }
      ],
      "outputs": [],
      "stateMutability": "nonpayable"
    },
    {
      "type": "function",
      "name": "validatePayment",
      "inputs": [
        {
          "name": "agent",
          "type": "address",
          "internalType": "address"
        },
        {
          "name": "covenantId",
          "type": "bytes32",
          "internalType": "bytes32"
        },
        {
          "name": "score",
          "type": "uint8",
          "internalType": "uint8"
        },
        {
          "name": "requestHash",
          "type": "bytes32",
          "internalType": "bytes32"
        },
        {
          "name": "responseUri",
          "type": "string",
          "internalType": "string"
        },
        {
          "name": "responseHash",
          "type": "bytes32",
          "internalType": "bytes32"
        },
        {
          "name": "tag",
          "type": "bytes32",
          "internalType": "bytes32"
        },
        {
          "name": "nftId",
          "type": "uint256",
          "internalType": "uint256"
        }
      ],
      "outputs": [],
      "stateMutability": "nonpayable"
    },
    {
      "type": "function",
      "name": "verifiedPayments",
      "inputs": [
        {
          "name": "",
          "type": "address",
          "internalType": "address"
        },
        {
          "name": "",
          "type": "uint256",
          "internalType": "uint256"
        }
      ],
      "outputs": [
        {
          "name": "requestHash",
          "type": "bytes32",
          "internalType": "bytes32"
        },
        {
          "name": "covenantId",
          "type": "bytes32",
          "internalType": "bytes32"
        },
        {
          "name": "status",
          "type": "uint8",
          "internalType": "enum PaymentHistory.Status"
        }
      ],
      "stateMutability": "view"
    },
    {
      "type": "event",
      "name": "KudoSet",
      "inputs": [
        {
          "name": "kudo",
          "type": "address",
          "indexed": true,
          "internalType": "address"
        }
      ],
      "anonymous": false
    },
    {
      "type": "event",
      "name": "OwnershipTransferred",
      "inputs": [
        {
          "name": "previousOwner",
          "type": "address",
          "indexed": true,
          "internalType": "address"
        },
        {
          "name": "newOwner",
          "type": "address",
          "indexed": true,
          "internalType": "address"
        }
      ],
      "anonymous": false
    },
    {
      "type": "event",
      "name": "PaymentMarkedLate",
      "inputs": [
        {
          "name": "agent",
          "type": "address",
          "indexed": true,
          "internalType": "address"
        },
        {
          "name": "covenantId",
          "type": "bytes32",
          "indexed": false,
          "internalType": "bytes32"
        }
      ],
      "anonymous": false
    },
    {
      "type": "event",
      "name": "PaymentValidated",
      "inputs": [
        {
          "name": "agent",
          "type": "address",
          "indexed": true,
          "internalType": "address"
        },
        {
          "name": "covenantId",
          "type": "bytes32",
          "indexed": false,
          "internalType": "bytes32"
        },
        {
          "name": "score",
          "type": "uint8",
          "indexed": false,
          "internalType": "uint8"
        }
      ],
      "anonymous": false
    },
    {
      "type": "event",
      "name": "ValidatorAdded",
      "inputs": [
        {
          "name": "validator",
          "type": "address",
          "indexed": true,
          "internalType": "address"
        }
      ],
      "anonymous": false
    },
    {
      "type": "event",
      "name": "ValidatorRemoved",
      "inputs": [
        {
          "name": "validator",
          "type": "address",
          "indexed": true,
          "internalType": "address"
        }
      ],
      "anonymous": false
    }
  ],
  "bytecode": {
    "object": "0x60a0604052346100395761001a61001461010d565b906101c1565b61002261003e565b611f106101da8239608051816119da0152611f1090f35b610044565b60405190565b5f80fd5b601f801991011690565b634e487b7160e01b5f52604160045260245ffd5b9061007090610048565b810190811060018060401b0382111761008857604052565b610052565b906100a061009961003e565b9283610066565b565b5f80fd5b60018060a01b031690565b6100ba906100a6565b90565b6100c6816100b1565b036100cd57565b5f80fd5b905051906100de826100bd565b565b919060408382031261010857806100fc610105925f86016100d1565b936020016100d1565b90565b6100a2565b61012b6120ea803803806101208161008d565b9283398101906100e0565b9091565b90565b61014661014161014b926100a6565b61012f565b6100a6565b90565b61015790610132565b90565b6101639061014e565b90565b5f1b90565b9061017c60018060a01b0391610166565b9181191691161790565b61018f90610132565b90565b61019b90610186565b90565b90565b906101b66101b16101bd92610192565b61019e565b825461016b565b9055565b906101ce6101d79261015a565b6080525f6101a1565b56fe60806040526004361015610013575b610a04565b61001d5f356100dc565b806316a4e66e146100d757806340a141ff146100d25780634d238c8e146100cd5780635e2491f3146100c85780636a35e326146100c35780638da5cb5b146100be578063ca6807b2146100b9578063d059353a146100b4578063f02c368d146100af578063f2fde38b146100aa578063f64dba4a146100a55763facd743b0361000e576109cf565b61091a565b6108e7565b6108aa565b610754565b6106f8565b610632565b61059c565b6104e6565b6103d1565b61039e565b610342565b60e01c90565b60405190565b5f80fd5b5f80fd5b5f80fd5b60018060a01b031690565b610108906100f4565b90565b610114816100ff565b0361011b57565b5f80fd5b9050359061012c8261010b565b565b90565b61013a8161012e565b0361014157565b5f80fd5b9050359061015282610131565b565b919060408382031261017c5780610170610179925f860161011f565b93602001610145565b90565b6100ec565b90565b61019861019361019d926100f4565b610181565b6100f4565b90565b6101a990610184565b90565b6101b5906101a0565b90565b906101c2906101ac565b5f5260205260405f2090565b634e487b7160e01b5f52603260045260245ffd5b5490565b5f5260205f2090565b6101f8816101e2565b8210156102125761020a6003916101e6565b910201905f90565b6101ce565b5f1c90565b90565b61022b61023091610217565b61021c565b90565b61023d905461021f565b90565b60ff1690565b61025261025791610217565b610240565b90565b6102649054610246565b90565b6102729060026101b8565b9061027c826101e2565b8110156102b45761028c916101ef565b506102985f8201610233565b916102b160026102aa60018501610233565b930161025a565b90565b5f80fd5b90565b6102c4906102b8565b9052565b634e487b7160e01b5f52602160045260245ffd5b600211156102e657565b6102c8565b906102f5826102dc565b565b610300906102eb565b90565b61030c906102f7565b9052565b604090610339610340949695939661032f60608401985f8501906102bb565b60208301906102bb565b0190610303565b565b346103765761037261035e610358366004610154565b90610267565b6103699391936100e2565b93849384610310565b0390f35b6100e8565b9060208282031261039457610391915f0161011f565b90565b6100ec565b5f0190565b346103cc576103b66103b136600461037b565b610d15565b6103be6100e2565b806103c881610399565b0390f35b6100e8565b346103ff576103e96103e436600461037b565b610e73565b6103f16100e2565b806103fb81610399565b0390f35b6100e8565b5190565b60209181520190565b60200190565b610420906102b8565b9052565b61042d906102f7565b9052565b90604080610465936104495f8201515f860190610417565b61045b60208201516020860190610417565b0151910190610424565b565b9061047481606093610431565b0190565b60200190565b9061049b61049561048e84610404565b8093610408565b92610411565b905f5b8181106104ab5750505090565b9091926104c46104be6001928651610467565b94610478565b910191909161049e565b6104e39160208201915f81840391015261047e565b90565b34610516576105126105016104fc36600461037b565b610ff4565b6105096100e2565b918291826104ce565b0390f35b6100e8565b5f91031261052557565b6100ec565b1c90565b60018060a01b031690565b61054990600861054e930261052a565b61052e565b90565b9061055c9154610539565b90565b61056b60015f90610551565b90565b610577906101a0565b90565b6105839061056e565b9052565b919061059a905f6020850194019061057a565b565b346105cc576105ac36600461051b565b6105c86105b761055f565b6105bf6100e2565b91829182610587565b0390f35b6100e8565b60018060a01b031690565b6105ec9060086105f1930261052a565b6105d1565b90565b906105ff91546105dc565b90565b61060d5f5f906105f4565b90565b610619906100ff565b9052565b9190610630905f60208501940190610610565b565b346106625761064236600461051b565b61065e61064d610602565b6106556100e2565b9182918261061d565b0390f35b6100e8565b5f80fd5b5f80fd5b5f80fd5b909182601f830112156106ad5781359167ffffffffffffffff83116106a85760200192602083028401116106a357565b61066f565b61066b565b610667565b9190916040818403126106f3576106cb835f830161011f565b92602082013567ffffffffffffffff81116106ee576106ea9201610673565b9091565b6100f0565b6100ec565b346107275761071161070b3660046106b2565b916113cb565b6107196100e2565b8061072381610399565b0390f35b6100e8565b60ff1690565b61073b9061072c565b9052565b9190610752905f60208501940190610732565b565b346107845761078061076f61076a36600461037b565b611579565b6107776100e2565b9182918261073f565b0390f35b6100e8565b610792816102b8565b0361079957565b5f80fd5b905035906107aa82610789565b565b6107b58161072c565b036107bc57565b5f80fd5b905035906107cd826107ac565b565b909182601f830112156108095781359167ffffffffffffffff83116108045760200192600183028401116107ff57565b61066f565b61066b565b610667565b919091610100818403126108a557610828835f830161011f565b92610836816020840161079d565b9261084482604085016107c0565b92610852836060830161079d565b92608082013567ffffffffffffffff81116108a057816108739184016107cf565b92909361089d6108868460a0850161079d565b936108948160c0860161079d565b9360e001610145565b90565b6100f0565b6100ec565b346108e2576108cc6108bd36600461080e565b97969096959195949294611bcc565b6108d46100e2565b806108de81610399565b0390f35b6100e8565b34610915576108ff6108fa36600461037b565b611d52565b6109076100e2565b8061091181610399565b0390f35b6100e8565b346109485761093261092d36600461037b565b611ecf565b61093a6100e2565b8061094481610399565b0390f35b6100e8565b90610957906101ac565b5f5260205260405f2090565b60ff1690565b61097990600861097e930261052a565b610963565b90565b9061098c9154610969565b90565b6109a5906109a06003915f9261094d565b610981565b90565b151590565b6109b6906109a8565b9052565b91906109cd905f602085019401906109ad565b565b346109ff576109fb6109ea6109e536600461037b565b61098f565b6109f26100e2565b918291826109ba565b0390f35b6100e8565b5f80fd5b610a14610a1991610217565b6105d1565b90565b610a269054610a08565b90565b60209181520190565b5f7f4f6e6c79206f776e65722063616e2063616c6c00000000000000000000000000910152565b610a666013602092610a29565b610a6f81610a32565b0190565b610a889060208101905f818303910152610a59565b90565b15610a9257565b610a9a6100e2565b62461bcd60e51b815280610ab060048201610a73565b0390fd5b610ae190610adc33610ad6610ad0610acb5f610a1c565b6100ff565b916100ff565b14610a8b565b610c7d565b565b90565b610afa610af5610aff92610ae3565b610181565b6100f4565b90565b610b0b90610ae6565b90565b5f7f496e76616c69642076616c696461746f72206164647265737300000000000000910152565b610b426019602092610a29565b610b4b81610b0e565b0190565b610b649060208101905f818303910152610b35565b90565b15610b6e57565b610b766100e2565b62461bcd60e51b815280610b8c60048201610b4f565b0390fd5b610b9c610ba191610217565b610963565b90565b610bae9054610b90565b90565b5f7f4e6f7420612076616c696461746f720000000000000000000000000000000000910152565b610be5600f602092610a29565b610bee81610bb1565b0190565b610c079060208101905f818303910152610bd8565b90565b15610c1157565b610c196100e2565b62461bcd60e51b815280610c2f60048201610bf2565b0390fd5b5f1b90565b90610c4460ff91610c33565b9181191691161790565b610c57906109a8565b90565b90565b90610c72610c6d610c7992610c4e565b610c5a565b8254610c38565b9055565b610ca281610c9b610c95610c905f610b02565b6100ff565b916100ff565b1415610b67565b610cbe610cb9610cb46003849061094d565b610ba4565b610c0a565b610cd35f610cce6003849061094d565b610c5d565b610cfd7fe1434e25d6611e0db941968fdc97811c982ac1602e951637d206f5fdda9dd8f1916101ac565b90610d066100e2565b80610d1081610399565b0390a2565b610d1e90610ab4565b565b610d4d90610d4833610d42610d3c610d375f610a1c565b6100ff565b916100ff565b14610a8b565b610dd1565b565b5f7f416c726561647920612076616c696461746f7200000000000000000000000000910152565b610d836013602092610a29565b610d8c81610d4f565b0190565b610da59060208101905f818303910152610d76565b90565b15610daf57565b610db76100e2565b62461bcd60e51b815280610dcd60048201610d90565b0390fd5b610df681610def610de9610de45f610b02565b6100ff565b916100ff565b1415610b67565b610e1b610e16610e10610e0b6003859061094d565b610ba4565b156109a8565b610da8565b610e316001610e2c6003849061094d565b610c5d565b610e5b7fe366c1c0452ed8eec96861e9e54141ebff23c9ec89fe27b996b45f5ec3884987916101ac565b90610e646100e2565b80610e6e81610399565b0390a2565b610e7c90610d20565b565b606090565b601f801991011690565b634e487b7160e01b5f52604160045260245ffd5b90610eab90610e83565b810190811067ffffffffffffffff821117610ec557604052565b610e8d565b90610edd610ed66100e2565b9283610ea1565b565b67ffffffffffffffff8111610ef75760208091020190565b610e8d565b90610f0e610f0983610edf565b610eca565b918252565b90610f1d906102b8565b9052565b90610f2b906102eb565b9052565b610f396060610eca565b90565b90610f8b610f826002610f4d610f2f565b94610f64610f5c5f8301610233565b5f8801610f13565b610f7c610f7360018301610233565b60208801610f13565b0161025a565b60408401610f21565b565b610f9690610f3c565b90565b90610fa3826101e2565b610fac81610efc565b92610fba60208501916101e6565b5f915b838310610fca5750505050565b60036020600192610fda85610f8d565b815201920192019190610fbd565b610ff190610f99565b90565b61100b61101091611003610e7e565b5060026101b8565b610fe8565b90565b5f7f4f6e6c792076616c696461746f722063616e2063616c6c000000000000000000910152565b6110476017602092610a29565b61105081611013565b0190565b6110699060208101905f81830391015261103a565b90565b1561107357565b61107b6100e2565b62461bcd60e51b81528061109160048201611054565b0390fd5b906110bc92916110b76110b26110ad6003339061094d565b610ba4565b61106c565b6112c6565b565b6110d26110cd6110d792610ae3565b610181565b61012e565b90565b60016110e6910161012e565b90565b5090565b90565b9190811015611100576020020190565b6101ce565b3561110f81610789565b90565b61111c6060610eca565b90565b61113361112e61113892610ae3565b610c33565b6102b8565b90565b5f5260205f2090565b5490565b61115181611144565b82101561116b5761116360039161113b565b910201905f90565b6101ce565b634e487b7160e01b5f525f60045260245ffd5b61118d90516102b8565b90565b9061119c5f1991610c33565b9181191691161790565b6111af906102b8565b90565b6111bb90610217565b90565b906111d36111ce6111da926111a6565b6111b2565b8254611190565b9055565b6111e890516102eb565b90565b6111f4906102eb565b90565b90565b9061120f61120a611216926111eb565b6111f7565b8254610c38565b9055565b9061125e604060026112649461123d5f82016112375f8801611183565b906111be565b6112566001820161125060208801611183565b906111be565b0192016111de565b906111fa565b565b9190611277576112759161121a565b565b611170565b90815491680100000000000000008310156112ac57826112a49160016112aa95018155611148565b90611266565b565b610e8d565b91906112c4905f602085019401906102bb565b565b9291926112d25f6110be565b5b806112f06112ea6112e58689906110e9565b61012e565b9161012e565b10156113c4576113bf9061136261131161130c600286906101b8565b6110ed565b5f9061135d61132a611325898c88916110f0565b611105565b6113545f9161134b61134361133d611112565b9761111f565b5f8801610f13565b60208601610f13565b60408401610f21565b61127c565b82611377611372868985916110f0565b611105565b906113b76113a57ff7d9c1f314f50c09a3c2d480f56d0814f9afd400300b08233bb23a918fbb5628926101ac565b926113ae6100e2565b918291826112b1565b0390a26110da565b6112d3565b5050509050565b906113d69291611095565b565b5f90565b90565b6113f36113ee6113f8926113dc565b610181565b61072c565b90565b9061140582610404565b811015611416576020809102010190565b6101ce565b634e487b7160e01b5f52601160045260245ffd5b6114389061012e565b5f1981146114465760010190565b61141b565b90565b61146261145d6114679261144b565b610181565b61012e565b90565b61147961147f9193929361012e565b9261012e565b9161148b83820261012e565b92818404149015171561149a57565b61141b565b634e487b7160e01b5f52601260045260245ffd5b6114bf6114c59161012e565b9161012e565b9081156114d0570490565b61149f565b90565b6114ec6114e76114f1926114d5565b610181565b61012e565b90565b90565b61150b611506611510926114f4565b610181565b61012e565b90565b6115226115289193929361012e565b9261012e565b820391821161153357565b61141b565b61154761154d9193929361012e565b9261012e565b820180921161155857565b61141b565b61157161156c6115769261012e565b610181565b61072c565b90565b611590611595916115886113d8565b5060026101b8565b610fe8565b9061159f82610404565b90816115b36115ad5f6110be565b9161012e565b14611739576115c15f6110be565b906115cb5f6110be565b5b806115df6115d98661012e565b9161012e565b1015611638576115fc60406115f58784906113fb565b51016111de565b61160f61160960016102eb565b916102eb565b14611623575b61161e906110da565b6115cc565b9161163061161e9161142f565b929050611615565b5092506116d2916116bc61166361165c6116c294611656606461144e565b9061146a565b83906114b3565b916116b7611671600a6114d8565b61167b60966114f7565b906064938061169261168c8461012e565b9161012e565b10155f1461170d5750506116b0906116aa606461144e565b90611513565b5b9161144e565b611538565b9061146a565b6116cc606461144e565b906114b3565b806116e66116e0606461144e565b9161012e565b116116f8575b6116f59061155d565b90565b506116f5611706606461144e565b90506116ec565b6117349261172961172f9291611723606461144e565b90611513565b9061146a565b6114b3565b6116b1565b91505061174660326113df565b90565b90611776989796959493929161177161176c6117676003339061094d565b610ba4565b61106c565b61198f565b565b61178c61178761179192610ae3565b610181565b61072c565b90565b6117a86117a36117ad9261144b565b610181565b61072c565b90565b5f7f53636f7265206d7573742062652030206f722031303000000000000000000000910152565b6117e46016602092610a29565b6117ed816117b0565b0190565b6118069060208101905f8183039101526117d7565b90565b1561181057565b6118186100e2565b62461bcd60e51b81528061182e600482016117f1565b0390fd5b61183b906101a0565b90565b5f80fd5b60e01b90565b5f91031261185257565b6100ec565b90825f939282370152565b919061187c816118758161188195610a29565b8095611857565b610e83565b0190565b916118ce916118d5969897956080956118b66118c3946118ac60a08901955f8a01906102bb565b6020880190610732565b8583036040870152611862565b9660608301906102bb565b01906102bb565b565b6118df6100e2565b3d5f823e3d90fd5b6118f36118f891610217565b61052e565b90565b61190590546118e7565b90565b6119119061012e565b9052565b6003111561191f57565b6102c8565b9061192e82611915565b565b61193990611924565b90565b61194590611930565b9052565b91602061196a92949361196360408201965f830190611908565b019061193c565b565b91602061198d92949361198660408201965f8301906102bb565b0190610732565b565b9590969794929197886119aa6119a45f611778565b9161072c565b148015611bac575b6119bb90611809565b886119cf6119c96064611794565b9161072c565b14611b59575b6119fe7f0000000000000000000000000000000000000000000000000000000000000000611832565b916330e5993a8a9695919295843b15611b54575f96611a31948894611a3c93611a256100e2565b9b8c9a8b998a98611842565b885260048801611885565b03925af18015611b4f57611b23575b50611a5e611a5960016118fb565b61056e565b9063de518f8d90600192803b15611b1e57611a8c5f8094611a97611a806100e2565b97889687958694611842565b845260048401611949565b03925af18015611b1957611aed575b509091611ad37f581536ebaa485d39a30db402c0bb609f990af7c5f8193e96a1fd5968d517047c926101ac565b92611ae8611adf6100e2565b9283928361196c565b0390a2565b611b0c905f3d8111611b12575b611b048183610ea1565b810190611848565b5f611aa6565b503d611afa565b6118d7565b61183e565b611b42905f3d8111611b48575b611b3a8183610ea1565b810190611848565b5f611a4b565b503d611b30565b6118d7565b61183e565b611ba7611b70611b6b60028a906101b8565b6110ed565b8490611ba28b611b99600191611b90611b87611112565b965f8801610f13565b60208601610f13565b60408401610f21565b61127c565b6119d5565b506119bb89611bc4611bbe6064611794565b9161072c565b1490506119b2565b90611bdd9897969594939291611749565b565b611c0c90611c0733611c01611bfb611bf65f610a1c565b6100ff565b916100ff565b14610a8b565b611cce565b565b5f7f496e76616c6964206e6577206f776e6572000000000000000000000000000000910152565b611c426011602092610a29565b611c4b81611c0e565b0190565b611c649060208101905f818303910152611c35565b90565b15611c6e57565b611c766100e2565b62461bcd60e51b815280611c8c60048201611c4f565b0390fd5b90611ca160018060a01b0391610c33565b9181191691161790565b90565b90611cc3611cbe611cca926101ac565b611cab565b8254611c90565b9055565b611cf381611cec611ce6611ce15f610b02565b6100ff565b916100ff565b1415611c67565b611cfc5f610a1c565b611d06825f611cae565b90611d3a611d347f8be0079c531659141344cd1fd0a4f28419497f9722a3daafe3b4186f6b6457e0936101ac565b916101ac565b91611d436100e2565b80611d4d81610399565b0390a3565b611d5b90611bdf565b565b611d8a90611d8533611d7f611d79611d745f610a1c565b6100ff565b916100ff565b14610a8b565b611e55565b565b5f7f496e76616c6964204b75646f2061646472657373000000000000000000000000910152565b611dc06014602092610a29565b611dc981611d8c565b0190565b611de29060208101905f818303910152611db3565b90565b15611dec57565b611df46100e2565b62461bcd60e51b815280611e0a60048201611dcd565b0390fd5b611e1790610184565b90565b611e2390611e0e565b90565b611e2f90611e0e565b90565b90565b90611e4a611e45611e5192611e26565b611e32565b8254611c90565b9055565b611e7a81611e73611e6d611e685f610b02565b6100ff565b916100ff565b1415611de5565b611e8d611e8682611e1a565b6001611e35565b611eb77f366dfd07dbb9cc69c182e821cde9e0887faa58dd634071dd38d5d1e374e054a9916101ac565b90611ec06100e2565b80611eca81610399565b0390a2565b611ed890611d5d565b56fea2646970667358221220cf73ac7b49c52de7a873767afe6f06077a95faba1de42a58faa9cfe372c42e2564736f6c634300081b0033",
    "linkReferences": {}
  },
  "methodIdentifiers": {
    "addValidator(address)": "4d238c8e",
    "getAgentScore(address)": "d059353a",
    "getVerifiedPayments(address)": "5e2491f3",
    "i_kudo()": "6a35e326",
    "isValidator(address)": "facd743b",
    "markLatePayments(address,bytes32[])": "ca6807b2",
    "owner()": "8da5cb5b",
    "removeValidator(address)": "40a141ff",
    "setKudo(address)": "f64dba4a",
    "transferOwnership(address)": "f2fde38b",
    "validatePayment(address,bytes32,uint8,bytes32,string,bytes32,bytes32,uint256)": "f02c368d",
    "verifiedPayments(address,uint256)": "16a4e66e"
  },
  "id": 76
}